{
  "contractName": "MemoContract",
  "abi": [
    {
      "constant": true,
      "inputs": [
        {
          "name": "",
          "type": "address"
        }
      ],
      "name": "direcciones",
      "outputs": [
        {
          "name": "",
          "type": "bool"
        }
      ],
      "payable": false,
      "stateMutability": "view",
      "type": "function"
    },
    {
      "constant": true,
      "inputs": [
        {
          "name": "",
          "type": "uint256"
        }
      ],
      "name": "jugadas",
      "outputs": [
        {
          "name": "idjugada",
          "type": "uint256"
        },
        {
          "name": "fecha",
          "type": "uint256"
        },
        {
          "name": "nombre",
          "type": "string"
        },
        {
          "name": "mail",
          "type": "string"
        },
        {
          "name": "intentos",
          "type": "uint256"
        },
        {
          "name": "tiempo",
          "type": "uint256"
        }
      ],
      "payable": false,
      "stateMutability": "view",
      "type": "function"
    },
    {
      "inputs": [],
      "payable": false,
      "stateMutability": "nonpayable",
      "type": "constructor"
    },
    {
      "anonymous": false,
      "inputs": [
        {
          "indexed": false,
          "name": "jugadanro",
          "type": "uint256"
        }
      ],
      "name": "addedJugada",
      "type": "event"
    },
    {
      "constant": false,
      "inputs": [
        {
          "name": "_direccion",
          "type": "address"
        },
        {
          "name": "_estado",
          "type": "bool"
        }
      ],
      "name": "updateDireccion",
      "outputs": [],
      "payable": false,
      "stateMutability": "nonpayable",
      "type": "function"
    },
    {
      "constant": false,
      "inputs": [
        {
          "name": "_fecha",
          "type": "uint256"
        },
        {
          "name": "_nombre",
          "type": "string"
        },
        {
          "name": "_mail",
          "type": "string"
        },
        {
          "name": "_intentos",
          "type": "uint256"
        },
        {
          "name": "_tiempo",
          "type": "uint256"
        }
      ],
      "name": "addJugada",
      "outputs": [],
      "payable": false,
      "stateMutability": "nonpayable",
      "type": "function"
    },
    {
      "constant": true,
      "inputs": [],
      "name": "fetchJugadas",
      "outputs": [
        {
          "name": "",
          "type": "uint256[]"
        },
        {
          "name": "",
          "type": "uint256[]"
        },
        {
          "name": "",
          "type": "bytes32[]"
        },
        {
          "name": "",
          "type": "bytes32[]"
        },
        {
          "name": "",
          "type": "uint256[]"
        },
        {
          "name": "",
          "type": "uint256[]"
        }
      ],
      "payable": false,
      "stateMutability": "view",
      "type": "function"
    },
    {
      "constant": false,
      "inputs": [
        {
          "name": "source",
          "type": "string"
        }
      ],
      "name": "stringToBytes32",
      "outputs": [
        {
          "name": "result",
          "type": "bytes32"
        }
      ],
      "payable": false,
      "stateMutability": "nonpayable",
      "type": "function"
    }
  ],
  "bytecode": "0x60806040526000805534801561001457600080fd5b5033600160006101000a81548173ffffffffffffffffffffffffffffffffffffffff021916908373ffffffffffffffffffffffffffffffffffffffff160217905550600160036000600160009054906101000a900473ffffffffffffffffffffffffffffffffffffffff1673ffffffffffffffffffffffffffffffffffffffff1673ffffffffffffffffffffffffffffffffffffffff16815260200190815260200160002060006101000a81548160ff021916908315150217905550610f00806100df6000396000f300608060405260043610610078576000357c0100000000000000000000000000000000000000000000000000000000900463ffffffff1680634e8182c81461007d5780636cdffb3c1461014a57806373fc83fa1461031e5780639cc7c3981461036d578063cd63c14a146103c8578063cfb51928146104f6575b600080fd5b34801561008957600080fd5b5061014860048036038101908080359060200190929190803590602001908201803590602001908080601f0160208091040260200160405190810160405280939291908181526020018383808284378201915050505050509192919290803590602001908201803590602001908080601f0160208091040260200160405190810160405280939291908181526020018383808284378201915050505050509192919290803590602001909291908035906020019092919050505061057b565b005b34801561015657600080fd5b5061015f6106e1565b6040518080602001806020018060200180602001806020018060200187810387528d818151815260200191508051906020019060200280838360005b838110156101b657808201518184015260208101905061019b565b5050505090500187810386528c818151815260200191508051906020019060200280838360005b838110156101f85780820151818401526020810190506101dd565b5050505090500187810385528b818151815260200191508051906020019060200280838360005b8381101561023a57808201518184015260208101905061021f565b5050505090500187810384528a818151815260200191508051906020019060200280838360005b8381101561027c578082015181840152602081019050610261565b50505050905001878103835289818151815260200191508051906020019060200280838360005b838110156102be5780820151818401526020810190506102a3565b50505050905001878103825288818151815260200191508051906020019060200280838360005b838110156103005780820151818401526020810190506102e5565b505050509050019c5050505050505050505050505060405180910390f35b34801561032a57600080fd5b5061036b600480360381019080803573ffffffffffffffffffffffffffffffffffffffff169060200190929190803515159060200190929190505050610b55565b005b34801561037957600080fd5b506103ae600480360381019080803573ffffffffffffffffffffffffffffffffffffffff169060200190929190505050610c69565b604051808215151515815260200191505060405180910390f35b3480156103d457600080fd5b506103f360048036038101908080359060200190929190505050610c89565b604051808781526020018681526020018060200180602001858152602001848152602001838103835287818151815260200191508051906020019080838360005b8381101561044f578082015181840152602081019050610434565b50505050905090810190601f16801561047c5780820380516001836020036101000a031916815260200191505b50838103825286818151815260200191508051906020019080838360005b838110156104b557808201518184015260208101905061049a565b50505050905090810190601f1680156104e25780820380516001836020036101000a031916815260200191505b509850505050505050505060405180910390f35b34801561050257600080fd5b5061055d600480360381019080803590602001908201803590602001908080601f0160208091040260200160405190810160405280939291908181526020018383808284378201915050505050509192919290505050610e04565b60405180826000191660001916815260200191505060405180910390f35b600360003373ffffffffffffffffffffffffffffffffffffffff1673ffffffffffffffffffffffffffffffffffffffff16815260200190815260200160002060009054906101000a900460ff1615156105d357600080fd5b600160005401600081905550600260c060405190810160405280600054815260200187815260200186815260200185815260200184815260200183815250908060018154018082558091505090600182039060005260206000209060060201600090919290919091506000820151816000015560208201518160010155604082015181600201908051906020019061066c929190610e2f565b506060820151816003019080519060200190610689929190610e2f565b506080820151816004015560a082015181600501555050507f35667bb56497b7cbdea48543f6ce8809cf061f6009e359e3767a9846c83e120e6000546040518082815260200191505060405180910390a15050505050565b606080606080606080606080606080606080600080546040519080825280602002602001820160405280156107255781602001602082028038833980820191505090505b5096506000546040519080825280602002602001820160405280156107595781602001602082028038833980820191505090505b50955060005460405190808252806020026020018201604052801561078d5781602001602082028038833980820191505090505b5094506000546040519080825280602002602001820160405280156107c15781602001602082028038833980820191505090505b5093506000546040519080825280602002602001820160405280156107f55781602001602082028038833980820191505090505b5092506000546040519080825280602002602001820160405280156108295781602001602082028038833980820191505090505b509150600090505b6002805490508160ff161015610b345760028160ff1681548110151561085357fe5b906000526020600020906006020160000154878260ff1681518110151561087657fe5b906020019060200201818152505060028160ff1681548110151561089657fe5b906000526020600020906006020160010154868260ff168151811015156108b957fe5b906020019060200201818152505061098b60028260ff168154811015156108dc57fe5b90600052602060002090600602016002018054600181600116156101000203166002900480601f0160208091040260200160405190810160405280929190818152602001828054600181600116156101000203166002900480156109815780601f1061095657610100808354040283529160200191610981565b820191906000526020600020905b81548152906001019060200180831161096457829003601f168201915b5050505050610e04565b858260ff1681518110151561099c57fe5b906020019060200201906000191690816000191681525050610a7860028260ff168154811015156109c957fe5b90600052602060002090600602016003018054600181600116156101000203166002900480601f016020809104026020016040519081016040528092919081815260200182805460018160011615610100020316600290048015610a6e5780601f10610a4357610100808354040283529160200191610a6e565b820191906000526020600020905b815481529060010190602001808311610a5157829003601f168201915b5050505050610e04565b848260ff16815181101515610a8957fe5b90602001906020020190600019169081600019168152505060028160ff16815481101515610ab357fe5b906000526020600020906006020160040154838260ff16815181101515610ad657fe5b906020019060200201818152505060028160ff16815481101515610af657fe5b906000526020600020906006020160050154828260ff16815181101515610b1957fe5b90602001906020020181815250508080600101915050610831565b8686868686869c509c509c509c509c509c5050505050505050909192939495565b600160009054906101000a900473ffffffffffffffffffffffffffffffffffffffff1673ffffffffffffffffffffffffffffffffffffffff163373ffffffffffffffffffffffffffffffffffffffff16141515610bb157600080fd5b600160009054906101000a900473ffffffffffffffffffffffffffffffffffffffff1673ffffffffffffffffffffffffffffffffffffffff168273ffffffffffffffffffffffffffffffffffffffff1614151515610c0e57600080fd5b80600360008473ffffffffffffffffffffffffffffffffffffffff1673ffffffffffffffffffffffffffffffffffffffff16815260200190815260200160002060006101000a81548160ff0219169083151502179055505050565b60036020528060005260406000206000915054906101000a900460ff1681565b600281815481101515610c9857fe5b9060005260206000209060060201600091509050806000015490806001015490806002018054600181600116156101000203166002900480601f016020809104026020016040519081016040528092919081815260200182805460018160011615610100020316600290048015610d505780601f10610d2557610100808354040283529160200191610d50565b820191906000526020600020905b815481529060010190602001808311610d3357829003601f168201915b505050505090806003018054600181600116156101000203166002900480601f016020809104026020016040519081016040528092919081815260200182805460018160011615610100020316600290048015610dee5780601f10610dc357610100808354040283529160200191610dee565b820191906000526020600020905b815481529060010190602001808311610dd157829003601f168201915b5050505050908060040154908060050154905086565b60006060829050600081511415610e215760006001029150610e29565b602083015191505b50919050565b828054600181600116156101000203166002900490600052602060002090601f016020900481019282601f10610e7057805160ff1916838001178555610e9e565b82800160010185558215610e9e579182015b82811115610e9d578251825591602001919060010190610e82565b5b509050610eab9190610eaf565b5090565b610ed191905b80821115610ecd576000816000905550600101610eb5565b5090565b905600a165627a7a7230582082d9543d09131122ed58b002a962c1c4cec31a7aad4df84093e7fb580014bb110029",
  "source": "pragma solidity ^0.4.24;\n\ncontract MemoContract {\n\n   //evento para avisar que se agrego una jugada\n  event addedJugada (\n      uint jugadanro\n  );  \n\n  // contador de jugadas\n  uint contadorjugadas = 0;\n  \n\n  //Due침o del contrato\n  address owner;\n\n  // Representa una jugada realizada\n  struct Jugada {\n      uint idjugada;\n      uint fecha; // timestamp\n      string nombre; // nombre de la persona\n      string mail; // mail de la persona\n      uint intentos; // cantidad de intentos en los que gano\n      uint tiempo; // tiempo que demor칩 en terminar la partida\n  }\n\n  // Colecci칩n de jugadas  \n  Jugada[] public jugadas;\n\n\n  // map para direcciones activas para informar jugadas\n  mapping( address => bool) public direcciones;\n\n\n\n  //Constructor del contrato\n  constructor() public {\n\n    //Registrar el propietario y que quede habilitado para enviar jugadas\n    owner = msg.sender;\n    direcciones[owner] = true;\n\n   \n  }\n\n\n function updateDireccion ( address _direccion , bool _estado)  {\n     // Solo el due침o puede habilitar o deshabilitar direcciones que pueden escribir la jugada\n     require(msg.sender == owner);\n\n     // Evitar que se quiera modificar el estado del owner\n     require(_direccion != owner);\n\n     direcciones[_direccion] = _estado;\n } \n\n\n \n\n  // Agregar una jugada\n  function addJugada ( uint _fecha , string _nombre , string _mail , uint _intentos , uint _tiempo ) public {\n      \n      require(direcciones[msg.sender] );\n\n      contadorjugadas = contadorjugadas + 1;\n      \n      jugadas.push (\n            Jugada ({\n                \n                idjugada:contadorjugadas,\n                fecha: _fecha,\n                nombre:_nombre,\n                mail: _mail,\n                intentos: _intentos,\n                tiempo: _tiempo\n                \n            }));\n\n        // Llamar al evento para informar que se agrego la jugada\n        addedJugada( contadorjugadas );\n\n        }\n\n\n\n    // Devolver todas las jugadas\n    function fetchJugadas() constant public returns(uint[], uint[], bytes32[], bytes32[], uint[], uint[]) {\n        \n\n\n\n            \n            \n            uint[] memory _idjugadas = new uint[](contadorjugadas);\n            uint[] memory _fechas = new uint[](contadorjugadas);\n            bytes32[] memory _nombres = new bytes32[](contadorjugadas);\n            bytes32[] memory _mails = new bytes32[](contadorjugadas);\n            uint[] memory _intentos = new uint[](contadorjugadas);\n            uint[] memory _tiempos = new uint[](contadorjugadas);\n\n        \n            for (uint8 i = 0; i < jugadas.length; i++) {\n\n                \n                 _idjugadas[i] = jugadas[i].idjugada;\n                _fechas[i] = jugadas[i].fecha;\n                _nombres[i] = stringToBytes32( jugadas[i].nombre );\n                _mails[i] = stringToBytes32( jugadas[i].mail );\n                _intentos[i] = jugadas[i].intentos;\n                _tiempos[i] = jugadas[i].tiempo;\n                \n                \n            }\n            \n            return ( _idjugadas, _fechas, _nombres, _mails, _intentos, _tiempos);\n        \n    }\n    \n    \n    function stringToBytes32(string memory source)  returns (bytes32 result)  {\n    bytes memory tempEmptyStringTest = bytes(source);\n    if (tempEmptyStringTest.length == 0) {\n        return 0x0;\n    }\n\n    assembly {\n        result := mload(add(source, 32))\n    }\n}\n    \n}",
  "sourcePath": "/home/cristianl/memocontract/contracts/MemoContract.sol",
  "compiler": {
    "name": "solc",
    "version": "0.4.24+commit.e67f0147.Emscripten.clang"
  },
  "schemaVersion": "2.0.1",
  "updatedAt": "2018-09-20T22:05:33.502Z"
}